:1000000012C019C018C017C016C015C014C013C044
:1000100012C011C010C00FC00EC00DC00CC00BC06C
:100020000AC009C008C011241FBECFE5D4E0DEBF5E
:10003000CDBF02D023C0E4CF2FEF27BB14BA5CE0C2
:1000400064E17AE0E2E123B3287030E043B3842F27
:10005000817090E02830310529F48130910541F418
:10006000E8BBF1CF232B41F4019731F468BBEBCF10
:10007000892B11F478BBE7CF58BBE5CFF894FFCFBD
:00000001FF
